{
  "contractName": "ERC721Enumerable",
  "abi": [
    {
      "inputs": [],
      "stateMutability": "nonpayable",
      "type": "constructor"
    },
    {
      "anonymous": false,
      "inputs": [
        {
          "indexed": true,
          "internalType": "address",
          "name": "_owner",
          "type": "address"
        },
        {
          "indexed": true,
          "internalType": "address",
          "name": "_approved",
          "type": "address"
        },
        {
          "indexed": true,
          "internalType": "uint256",
          "name": "_tokenId",
          "type": "uint256"
        }
      ],
      "name": "Approval",
      "type": "event"
    },
    {
      "anonymous": false,
      "inputs": [
        {
          "indexed": true,
          "internalType": "address",
          "name": "_from",
          "type": "address"
        },
        {
          "indexed": true,
          "internalType": "address",
          "name": "_to",
          "type": "address"
        },
        {
          "indexed": true,
          "internalType": "uint256",
          "name": "_tokenId",
          "type": "uint256"
        }
      ],
      "name": "Transfer",
      "type": "event"
    },
    {
      "inputs": [
        {
          "internalType": "address",
          "name": "_to",
          "type": "address"
        },
        {
          "internalType": "uint256",
          "name": "tokenId",
          "type": "uint256"
        }
      ],
      "name": "approve",
      "outputs": [],
      "stateMutability": "nonpayable",
      "type": "function"
    },
    {
      "inputs": [
        {
          "internalType": "address",
          "name": "_owner",
          "type": "address"
        }
      ],
      "name": "balanceOf",
      "outputs": [
        {
          "internalType": "uint256",
          "name": "",
          "type": "uint256"
        }
      ],
      "stateMutability": "view",
      "type": "function"
    },
    {
      "inputs": [
        {
          "internalType": "uint256",
          "name": "_tokenId",
          "type": "uint256"
        }
      ],
      "name": "ownerOf",
      "outputs": [
        {
          "internalType": "address",
          "name": "",
          "type": "address"
        }
      ],
      "stateMutability": "view",
      "type": "function"
    },
    {
      "inputs": [
        {
          "internalType": "bytes4",
          "name": "interfaceID",
          "type": "bytes4"
        }
      ],
      "name": "supportsInterface",
      "outputs": [
        {
          "internalType": "bool",
          "name": "",
          "type": "bool"
        }
      ],
      "stateMutability": "view",
      "type": "function"
    },
    {
      "inputs": [
        {
          "internalType": "address",
          "name": "_from",
          "type": "address"
        },
        {
          "internalType": "address",
          "name": "_to",
          "type": "address"
        },
        {
          "internalType": "uint256",
          "name": "_tokenId",
          "type": "uint256"
        }
      ],
      "name": "transferFrom",
      "outputs": [],
      "stateMutability": "nonpayable",
      "type": "function"
    },
    {
      "inputs": [
        {
          "internalType": "uint256",
          "name": "index",
          "type": "uint256"
        }
      ],
      "name": "tokenByIndex",
      "outputs": [
        {
          "internalType": "uint256",
          "name": "",
          "type": "uint256"
        }
      ],
      "stateMutability": "view",
      "type": "function"
    },
    {
      "inputs": [
        {
          "internalType": "address",
          "name": "owner",
          "type": "address"
        },
        {
          "internalType": "uint256",
          "name": "index",
          "type": "uint256"
        }
      ],
      "name": "tokenOfOwnerByIndex",
      "outputs": [
        {
          "internalType": "uint256",
          "name": "",
          "type": "uint256"
        }
      ],
      "stateMutability": "view",
      "type": "function"
    },
    {
      "inputs": [],
      "name": "totalSupply",
      "outputs": [
        {
          "internalType": "uint256",
          "name": "",
          "type": "uint256"
        }
      ],
      "stateMutability": "view",
      "type": "function"
    }
  ],
  "bytecode": "0x60806040523480156200001157600080fd5b50620000437f01ffc9a7a5cef8baa21ed3c5c0d7e23accb804b619e9333b597f47a0d84076e26200013360201b60201c565b620000b87f22c82707ba960a14c7592ffb6b8cfaa073fed0048a84cc7fa41f6b5bd8e7f2e47f3a6eb71757dfc6e784c1459d26270140c2c147d95ca985c80026fc5301c3eca17f8a7e378434598edc36d108689a030cbc9d7d465de4f74c71bae1028eed6a881b18186200013360201b60201c565b6200012d7f8230223f691b981717299fae9549350a0d894555723531f02108b1f522c1a7977f6da5e1284143cdd2d15038a59bde3be031250f00291d64494c12d967b3a4e0c37fc53637662700e6c65104059db8bba34439e0c32483ab7c34e3ccae52c739549518186200013360201b60201c565b6200028d565b63ffffffff60e01b817bffffffffffffffffffffffffffffffffffffffffffffffffffffffff1916036200019e576040517f08c379a000000000000000000000000000000000000000000000000000000000815260040162000195906200026b565b60405180910390fd5b6001600080837bffffffffffffffffffffffffffffffffffffffffffffffffffffffff19167bffffffffffffffffffffffffffffffffffffffffffffffffffffffff1916815260200190815260200160002060006101000a81548160ff02191690831515021790555050565b600082825260208201905092915050565b7f496e76616c696420696e74657266616365207265717565737400000000000000600082015250565b6000620002536019836200020a565b915062000260826200021b565b602082019050919050565b60006020820190508181036000830152620002868162000244565b9050919050565b611036806200029d6000396000f3fe608060405234801561001057600080fd5b50600436106100885760003560e01c80632f745c591161005b5780632f745c59146101135780634f6ccce7146101435780636352211e1461017357806370a08231146101a357610088565b806301ffc9a71461008d578063095ea7b3146100bd57806318160ddd146100d957806323b872dd146100f7575b600080fd5b6100a760048036038101906100a2919061091d565b6101d3565b6040516100b49190610965565b60405180910390f35b6100d760048036038101906100d29190610a14565b61023a565b005b6100e16103d5565b6040516100ee9190610a63565b60405180910390f35b610111600480360381019061010c9190610a7e565b6103e2565b005b61012d60048036038101906101289190610a14565b6103f2565b60405161013a9190610a63565b60405180910390f35b61015d60048036038101906101589190610ad1565b6104a2565b60405161016a9190610a63565b60405180910390f35b61018d60048036038101906101889190610ad1565b610513565b60405161019a9190610b0d565b60405180910390f35b6101bd60048036038101906101b89190610b28565b6105c4565b6040516101ca9190610a63565b60405180910390f35b6000806000837bffffffffffffffffffffffffffffffffffffffffffffffffffffffff19167bffffffffffffffffffffffffffffffffffffffffffffffffffffffff1916815260200190815260200160002060009054906101000a900460ff169050919050565b600061024582610513565b90508073ffffffffffffffffffffffffffffffffffffffff168373ffffffffffffffffffffffffffffffffffffffff16036102b5576040517f08c379a00000000000000000000000000000000000000000000000000000000081526004016102ac90610bd8565b60405180910390fd5b8073ffffffffffffffffffffffffffffffffffffffff163373ffffffffffffffffffffffffffffffffffffffff1614610323576040517f08c379a000000000000000000000000000000000000000000000000000000000815260040161031a90610c6a565b60405180910390fd5b826003600084815260200190815260200160002060006101000a81548173ffffffffffffffffffffffffffffffffffffffff021916908373ffffffffffffffffffffffffffffffffffffffff160217905550818373ffffffffffffffffffffffffffffffffffffffff168273ffffffffffffffffffffffffffffffffffffffff167f8c5be1e5ebec7d5bd14f71427d1e84f3dd0314c0f7b2291e5b200ac8c7c3b92560405160405180910390a4505050565b6000600480549050905090565b6103ed83838361067b565b505050565b60006103fd836105c4565b821061043e576040517f08c379a000000000000000000000000000000000000000000000000000000000815260040161043590610cd6565b60405180910390fd5b600660008473ffffffffffffffffffffffffffffffffffffffff1673ffffffffffffffffffffffffffffffffffffffff168152602001908152602001600020828154811061048f5761048e610cf6565b5b9060005260206000200154905092915050565b60006104ac6103d5565b82106104ed576040517f08c379a00000000000000000000000000000000000000000000000000000000081526004016104e490610d71565b60405180910390fd5b6004828154811061050157610500610cf6565b5b90600052602060002001549050919050565b6000806001600084815260200190815260200160002060009054906101000a900473ffffffffffffffffffffffffffffffffffffffff169050600073ffffffffffffffffffffffffffffffffffffffff168173ffffffffffffffffffffffffffffffffffffffff16036105bb576040517f08c379a00000000000000000000000000000000000000000000000000000000081526004016105b290610e03565b60405180910390fd5b80915050919050565b60008073ffffffffffffffffffffffffffffffffffffffff168273ffffffffffffffffffffffffffffffffffffffff1603610634576040517f08c379a000000000000000000000000000000000000000000000000000000000815260040161062b90610e03565b60405180910390fd5b600260008373ffffffffffffffffffffffffffffffffffffffff1673ffffffffffffffffffffffffffffffffffffffff168152602001908152602001600020549050919050565b600073ffffffffffffffffffffffffffffffffffffffff168273ffffffffffffffffffffffffffffffffffffffff16036106ea576040517f08c379a00000000000000000000000000000000000000000000000000000000081526004016106e190610e95565b60405180910390fd5b8273ffffffffffffffffffffffffffffffffffffffff1661070a82610513565b73ffffffffffffffffffffffffffffffffffffffff1614610760576040517f08c379a000000000000000000000000000000000000000000000000000000000815260040161075790610f27565b60405180910390fd5b6001600260008573ffffffffffffffffffffffffffffffffffffffff1673ffffffffffffffffffffffffffffffffffffffff16815260200190815260200160002060008282546107b09190610f76565b925050819055506001600260008473ffffffffffffffffffffffffffffffffffffffff1673ffffffffffffffffffffffffffffffffffffffff16815260200190815260200160002060008282546108079190610faa565b92505081905550816001600083815260200190815260200160002060006101000a81548173ffffffffffffffffffffffffffffffffffffffff021916908373ffffffffffffffffffffffffffffffffffffffff160217905550808273ffffffffffffffffffffffffffffffffffffffff168473ffffffffffffffffffffffffffffffffffffffff167fddf252ad1be2c89b69c2b068fc378daa952ba7f163c4a11628f55a4df523b3ef60405160405180910390a4505050565b600080fd5b60007fffffffff0000000000000000000000000000000000000000000000000000000082169050919050565b6108fa816108c5565b811461090557600080fd5b50565b600081359050610917816108f1565b92915050565b600060208284031215610933576109326108c0565b5b600061094184828501610908565b91505092915050565b60008115159050919050565b61095f8161094a565b82525050565b600060208201905061097a6000830184610956565b92915050565b600073ffffffffffffffffffffffffffffffffffffffff82169050919050565b60006109ab82610980565b9050919050565b6109bb816109a0565b81146109c657600080fd5b50565b6000813590506109d8816109b2565b92915050565b6000819050919050565b6109f1816109de565b81146109fc57600080fd5b50565b600081359050610a0e816109e8565b92915050565b60008060408385031215610a2b57610a2a6108c0565b5b6000610a39858286016109c9565b9250506020610a4a858286016109ff565b9150509250929050565b610a5d816109de565b82525050565b6000602082019050610a786000830184610a54565b92915050565b600080600060608486031215610a9757610a966108c0565b5b6000610aa5868287016109c9565b9350506020610ab6868287016109c9565b9250506040610ac7868287016109ff565b9150509250925092565b600060208284031215610ae757610ae66108c0565b5b6000610af5848285016109ff565b91505092915050565b610b07816109a0565b82525050565b6000602082019050610b226000830184610afe565b92915050565b600060208284031215610b3e57610b3d6108c0565b5b6000610b4c848285016109c9565b91505092915050565b600082825260208201905092915050565b7f4572726f72202d20617070726f76616c20746f2063757272656e74206f776e6560008201527f7200000000000000000000000000000000000000000000000000000000000000602082015250565b6000610bc2602183610b55565b9150610bcd82610b66565b604082019050919050565b60006020820190508181036000830152610bf181610bb5565b9050919050565b7f43757272656e742063616c6c6572206973206e6f7420687465206f776e65722060008201527f6f662074686520746f6b656e0000000000000000000000000000000000000000602082015250565b6000610c54602c83610b55565b9150610c5f82610bf8565b604082019050919050565b60006020820190508181036000830152610c8381610c47565b9050919050565b7f4f776e657220696e646578206973206f7574206f6620626f756e647321000000600082015250565b6000610cc0601d83610b55565b9150610ccb82610c8a565b602082019050919050565b60006020820190508181036000830152610cef81610cb3565b9050919050565b7f4e487b7100000000000000000000000000000000000000000000000000000000600052603260045260246000fd5b7f476c6f62616c20696e646578206973206f7574206f6620626f756e6473210000600082015250565b6000610d5b601e83610b55565b9150610d6682610d25565b602082019050919050565b60006020820190508181036000830152610d8a81610d4e565b9050919050565b7f4f776e657220717565727920666f72206e6f6e2d6578697374656e7420746f6b60008201527f656e000000000000000000000000000000000000000000000000000000000000602082015250565b6000610ded602283610b55565b9150610df882610d91565b604082019050919050565b60006020820190508181036000830152610e1c81610de0565b9050919050565b7f4572726f72202d20455243373231205472616e7366657220746f20746865207a60008201527f65726f2061646472657373000000000000000000000000000000000000000000602082015250565b6000610e7f602b83610b55565b9150610e8a82610e23565b604082019050919050565b60006020820190508181036000830152610eae81610e72565b9050919050565b7f547279696e6720746f207472616e73666572206120746f6b656e20746865206160008201527f64647265737320646f6573206e6f74206f776e21000000000000000000000000602082015250565b6000610f11603483610b55565b9150610f1c82610eb5565b604082019050919050565b60006020820190508181036000830152610f4081610f04565b9050919050565b7f4e487b7100000000000000000000000000000000000000000000000000000000600052601160045260246000fd5b6000610f81826109de565b9150610f8c836109de565b925082821015610f9f57610f9e610f47565b5b828203905092915050565b6000610fb5826109de565b9150610fc0836109de565b9250827fffffffffffffffffffffffffffffffffffffffffffffffffffffffffffffffff03821115610ff557610ff4610f47565b5b82820190509291505056fea2646970667358221220601496b8f88386656365b02546d0d2f2881560c7817cd0c832f253536e126f5364736f6c634300080d0033",
  "immutableReferences": {},
  "source": "// SPDX-License-Identifier: MIT\npragma solidity ^0.8.0;\n\nimport './ERC721.sol';\nimport './interfaces/IERC721Enumerable.sol';\n\ncontract ERC721Enumerable is IERC721Enumerable, ERC721 {\n    uint256[] private _allTokens;\n\n    // Mapping from tokenId to position in _allTokens array\n    mapping(uint256 => uint256) private _allTokensIndex;\n\n    // Mapping of owner to list of all owner token IDs\n    mapping(address => uint256[]) private _ownedTokens;\n\n    // Mapping from token ID to index of the owner tokens list\n    mapping(uint256 => uint256) private _ownedTokensIndex;\n\n    constructor() {\n      _registerInteface(bytes4(keccak256('totalSupply(bytes4)')^\n      keccak256('tokenByIndex(bytes4)')^keccak256('tokenOfOwnerByIndex(bytes4)')));\n    }\n\n    // See ERC721.sol for virtual function\n    // This is the one that is overrriding\n    function _mint(address to, uint256 tokenId) internal override(ERC721) {\n      super._mint(to, tokenId);\n      /**\n        2 things!\n        A. Add tokent to the owner\n        B. All tokens to our totalSupply - to allTokens\n       */\n\n      _addTokensToAllTokenEnumeration(tokenId);\n      _addTokensToOwnerEnumeration(to, tokenId);\n    }\n\n    // add tokens to the _allTokens array and set the position of the tokens index\n    function _addTokensToAllTokenEnumeration(uint256 tokenId) private {\n      _allTokensIndex[tokenId] = _allTokens.length;\n      _allTokens.push(tokenId);\n    }\n\n    function _addTokensToOwnerEnumeration(address to, uint256 tokenId) private {\n      // 1. add address and token ID to the _ownedTokens\n      // 2. ownedTokensIndex tokenId set to the address of the ownedTokens position\n      // 3. We want to execute the function with minting\n      _ownedTokensIndex[tokenId] = _ownedTokens[to].length;\n      _ownedTokens[to].push(tokenId);\n    }\n\n    // two functions - one that returns tokenByIndex and\n    // another one that returns tokenOfOwnerByIndex\n\n    function tokenByIndex(uint256 index) public override view returns(uint256) {\n      // make sure that index is not out of bounds of the total supply\n      require(index < totalSupply(), 'Global index is out of bounds!');\n      return _allTokens[index];\n    }\n\n    function tokenOfOwnerByIndex(address owner, uint index) public override view returns(uint256) {\n      require(index < balanceOf(owner), 'Owner index is out of bounds!');\n      return _ownedTokens[owner][index];\n    }\n\n    // return the total supply of the _alltokens array\n    function totalSupply() public override view returns (uint256) {\n      return _allTokens.length;\n    }\n}",
  "sourcePath": "/Users/zee/Repos/nft-marketplace-starter-kit-main/src/contracts/ERC721Enumerable.sol",
  "compiler": {
    "name": "solc",
    "version": "0.8.13+commit.abaa5c0e.Emscripten.clang"
  },
  "schemaVersion": "3.4.6",
  "updatedAt": "2022-04-15T23:15:28.610Z",
  "devdoc": {
    "kind": "dev",
    "methods": {
      "balanceOf(address)": {
        "details": "NFTs assigned to the zero address are considered invalid, and this  function throws for queries about the zero address.",
        "params": {
          "_owner": "An address for whom to query the balance"
        },
        "returns": {
          "_0": "The number of NFTs owned by `_owner`, possibly zero"
        }
      },
      "ownerOf(uint256)": {
        "details": "NFTs assigned to zero address are considered invalid, and queries  about them do throw.",
        "params": {
          "_tokenId": "The identifier for an NFT"
        },
        "returns": {
          "_0": "The address of the owner of the NFT"
        }
      },
      "supportsInterface(bytes4)": {
        "details": "Interface identification is specified in ERC-165. This function  uses less than 30,000 gas.",
        "params": {
          "interfaceID": "The interface identifier, as specified in ERC-165"
        },
        "returns": {
          "_0": "`true` if the contract implements `interfaceID` and  `interfaceID` is not 0xffffffff, `false` otherwise"
        }
      },
      "totalSupply()": {
        "returns": {
          "_0": "A count of valid NFTs tracked by this contract, where each one of  them has an assigned and queryable owner not equal to the zero address"
        }
      },
      "transferFrom(address,address,uint256)": {
        "details": "Throws unless `msg.sender` is the current owner, an authorized  operator, or the approved address for this NFT. Throws if `_from` is  not the current owner. Throws if `_to` is the zero address. Throws if  `_tokenId` is not a valid NFT.",
        "params": {
          "_from": "The current owner of the NFT",
          "_to": "The new owner",
          "_tokenId": "The NFT to transfer"
        }
      }
    },
    "version": 1
  },
  "userdoc": {
    "kind": "user",
    "methods": {
      "balanceOf(address)": {
        "notice": "Count all NFTs assigned to an owner"
      },
      "ownerOf(uint256)": {
        "notice": "Find the owner of an NFT"
      },
      "supportsInterface(bytes4)": {
        "notice": "Query if a contract implements an interface"
      },
      "totalSupply()": {
        "notice": "Count NFTs tracked by this contract"
      },
      "transferFrom(address,address,uint256)": {
        "notice": "Transfer ownership of an NFT -- THE CALLER IS RESPONSIBLE  TO CONFIRM THAT `_to` IS CAPABLE OF RECEIVING NFTS OR ELSE  THEY MAY BE PERMANENTLY LOST"
      }
    },
    "version": 1
  }
}