{
  "contractName": "ERC721Enumerable",
  "abi": [
    {
      "anonymous": false,
      "inputs": [
        {
          "indexed": true,
          "internalType": "address",
          "name": "from",
          "type": "address"
        },
        {
          "indexed": true,
          "internalType": "address",
          "name": "to",
          "type": "address"
        },
        {
          "indexed": true,
          "internalType": "uint256",
          "name": "tokenId",
          "type": "uint256"
        }
      ],
      "name": "Transfer",
      "type": "event"
    },
    {
      "inputs": [
        {
          "internalType": "address",
          "name": "_owner",
          "type": "address"
        }
      ],
      "name": "balanceOf",
      "outputs": [
        {
          "internalType": "uint256",
          "name": "",
          "type": "uint256"
        }
      ],
      "stateMutability": "view",
      "type": "function"
    },
    {
      "inputs": [
        {
          "internalType": "uint256",
          "name": "_tokenId",
          "type": "uint256"
        }
      ],
      "name": "ownerOf",
      "outputs": [
        {
          "internalType": "address",
          "name": "",
          "type": "address"
        }
      ],
      "stateMutability": "view",
      "type": "function"
    },
    {
      "inputs": [
        {
          "internalType": "address",
          "name": "_from",
          "type": "address"
        },
        {
          "internalType": "address",
          "name": "_to",
          "type": "address"
        },
        {
          "internalType": "uint256",
          "name": "_tokenId",
          "type": "uint256"
        }
      ],
      "name": "transferFrom",
      "outputs": [],
      "stateMutability": "nonpayable",
      "type": "function"
    },
    {
      "inputs": [
        {
          "internalType": "uint256",
          "name": "index",
          "type": "uint256"
        }
      ],
      "name": "tokenByIndex",
      "outputs": [
        {
          "internalType": "uint256",
          "name": "",
          "type": "uint256"
        }
      ],
      "stateMutability": "view",
      "type": "function"
    },
    {
      "inputs": [
        {
          "internalType": "address",
          "name": "owner",
          "type": "address"
        },
        {
          "internalType": "uint256",
          "name": "index",
          "type": "uint256"
        }
      ],
      "name": "tokenOfOwnerByIndex",
      "outputs": [
        {
          "internalType": "uint256",
          "name": "",
          "type": "uint256"
        }
      ],
      "stateMutability": "view",
      "type": "function"
    },
    {
      "inputs": [],
      "name": "totalSupply",
      "outputs": [
        {
          "internalType": "uint256",
          "name": "",
          "type": "uint256"
        }
      ],
      "stateMutability": "view",
      "type": "function"
    }
  ],
  "bytecode": "0x608060405234801561001057600080fd5b50610bdf806100206000396000f3fe608060405234801561001057600080fd5b50600436106100625760003560e01c806318160ddd1461006757806323b872dd146100855780632f745c59146100a15780634f6ccce7146100d15780636352211e1461010157806370a0823114610131575b600080fd5b61006f610161565b60405161007c9190610661565b60405180910390f35b61009f600480360381019061009a919061070b565b61016e565b005b6100bb60048036038101906100b6919061075e565b61017e565b6040516100c89190610661565b60405180910390f35b6100eb60048036038101906100e6919061079e565b61022e565b6040516100f89190610661565b60405180910390f35b61011b6004803603810190610116919061079e565b61029f565b60405161012891906107da565b60405180910390f35b61014b600480360381019061014691906107f5565b61034f565b6040516101589190610661565b60405180910390f35b6000600380549050905090565b610179838383610406565b505050565b60006101898361034f565b82106101ca576040517f08c379a00000000000000000000000000000000000000000000000000000000081526004016101c19061087f565b60405180910390fd5b600560008473ffffffffffffffffffffffffffffffffffffffff1673ffffffffffffffffffffffffffffffffffffffff168152602001908152602001600020828154811061021b5761021a61089f565b5b9060005260206000200154905092915050565b6000610238610161565b8210610279576040517f08c379a00000000000000000000000000000000000000000000000000000000081526004016102709061091a565b60405180910390fd5b6003828154811061028d5761028c61089f565b5b90600052602060002001549050919050565b60008060008084815260200190815260200160002060009054906101000a900473ffffffffffffffffffffffffffffffffffffffff169050600073ffffffffffffffffffffffffffffffffffffffff168173ffffffffffffffffffffffffffffffffffffffff1603610346576040517f08c379a000000000000000000000000000000000000000000000000000000000815260040161033d906109ac565b60405180910390fd5b80915050919050565b60008073ffffffffffffffffffffffffffffffffffffffff168273ffffffffffffffffffffffffffffffffffffffff16036103bf576040517f08c379a00000000000000000000000000000000000000000000000000000000081526004016103b6906109ac565b60405180910390fd5b600160008373ffffffffffffffffffffffffffffffffffffffff1673ffffffffffffffffffffffffffffffffffffffff168152602001908152602001600020549050919050565b600073ffffffffffffffffffffffffffffffffffffffff168273ffffffffffffffffffffffffffffffffffffffff1603610475576040517f08c379a000000000000000000000000000000000000000000000000000000000815260040161046c90610a3e565b60405180910390fd5b8273ffffffffffffffffffffffffffffffffffffffff166104958261029f565b73ffffffffffffffffffffffffffffffffffffffff16146104eb576040517f08c379a00000000000000000000000000000000000000000000000000000000081526004016104e290610ad0565b60405180910390fd5b60018060008573ffffffffffffffffffffffffffffffffffffffff1673ffffffffffffffffffffffffffffffffffffffff168152602001908152602001600020600082825461053a9190610b1f565b9250508190555060018060008473ffffffffffffffffffffffffffffffffffffffff1673ffffffffffffffffffffffffffffffffffffffff16815260200190815260200160002060008282546105909190610b53565b925050819055508160008083815260200190815260200160002060006101000a81548173ffffffffffffffffffffffffffffffffffffffff021916908373ffffffffffffffffffffffffffffffffffffffff160217905550808273ffffffffffffffffffffffffffffffffffffffff168473ffffffffffffffffffffffffffffffffffffffff167fddf252ad1be2c89b69c2b068fc378daa952ba7f163c4a11628f55a4df523b3ef60405160405180910390a4505050565b6000819050919050565b61065b81610648565b82525050565b60006020820190506106766000830184610652565b92915050565b600080fd5b600073ffffffffffffffffffffffffffffffffffffffff82169050919050565b60006106ac82610681565b9050919050565b6106bc816106a1565b81146106c757600080fd5b50565b6000813590506106d9816106b3565b92915050565b6106e881610648565b81146106f357600080fd5b50565b600081359050610705816106df565b92915050565b6000806000606084860312156107245761072361067c565b5b6000610732868287016106ca565b9350506020610743868287016106ca565b9250506040610754868287016106f6565b9150509250925092565b600080604083850312156107755761077461067c565b5b6000610783858286016106ca565b9250506020610794858286016106f6565b9150509250929050565b6000602082840312156107b4576107b361067c565b5b60006107c2848285016106f6565b91505092915050565b6107d4816106a1565b82525050565b60006020820190506107ef60008301846107cb565b92915050565b60006020828403121561080b5761080a61067c565b5b6000610819848285016106ca565b91505092915050565b600082825260208201905092915050565b7f4f776e657220696e646578206973206f7574206f6620626f756e647321000000600082015250565b6000610869601d83610822565b915061087482610833565b602082019050919050565b600060208201905081810360008301526108988161085c565b9050919050565b7f4e487b7100000000000000000000000000000000000000000000000000000000600052603260045260246000fd5b7f476c6f62616c20696e646578206973206f7574206f6620626f756e6473210000600082015250565b6000610904601e83610822565b915061090f826108ce565b602082019050919050565b60006020820190508181036000830152610933816108f7565b9050919050565b7f4f776e657220717565727920666f72206e6f6e2d6578697374656e7420746f6b60008201527f656e000000000000000000000000000000000000000000000000000000000000602082015250565b6000610996602283610822565b91506109a18261093a565b604082019050919050565b600060208201905081810360008301526109c581610989565b9050919050565b7f4572726f72202d20455243373231205472616e7366657220746f20746865207a60008201527f65726f2061646472657373000000000000000000000000000000000000000000602082015250565b6000610a28602b83610822565b9150610a33826109cc565b604082019050919050565b60006020820190508181036000830152610a5781610a1b565b9050919050565b7f547279696e6720746f207472616e73666572206120746f6b656e20746865206160008201527f64647265737320646f6573206e6f74206f776e21000000000000000000000000602082015250565b6000610aba603483610822565b9150610ac582610a5e565b604082019050919050565b60006020820190508181036000830152610ae981610aad565b9050919050565b7f4e487b7100000000000000000000000000000000000000000000000000000000600052601160045260246000fd5b6000610b2a82610648565b9150610b3583610648565b925082821015610b4857610b47610af0565b5b828203905092915050565b6000610b5e82610648565b9150610b6983610648565b9250827fffffffffffffffffffffffffffffffffffffffffffffffffffffffffffffffff03821115610b9e57610b9d610af0565b5b82820190509291505056fea2646970667358221220589fb61cdbfc12a4b955308031b9ea06ba050d553f940d9aee3aeceaa30e6ff064736f6c634300080d0033",
  "immutableReferences": {},
  "source": "// SPDX-License-Identifier: MIT\npragma solidity ^0.8.0;\n\nimport './ERC721.sol';\n\ncontract ERC721Enumerable is ERC721 {\n    uint256[] private _allTokens;\n\n    // Mapping from tokenId to position in _allTokens array\n    mapping(uint256 => uint256) private _allTokensIndex;\n\n    // Mapping of owner to list of all owner token IDs\n    mapping(address => uint256[]) private _ownedTokens;\n\n    // Mapping from token ID to index of the owner tokens list\n    mapping(uint256 => uint256) private _ownedTokensIndex;\n\n    // See ERC721.sol for virtual function\n    // This is the one that is overrriding\n    function _mint(address to, uint256 tokenId) internal override(ERC721) {\n      super._mint(to, tokenId);\n      /**\n        2 things!\n        A. Add tokent to the owner\n        B. All tokens to our totalSupply - to allTokens\n       */\n\n      _addTokensToAllTokenEnumeration(tokenId);\n      _addTokensToOwnerEnumeration(to, tokenId);\n    }\n\n    // add tokens to the _allTokens array and set the position of the tokens index\n    function _addTokensToAllTokenEnumeration(uint256 tokenId) private {\n      _allTokensIndex[tokenId] = _allTokens.length;\n      _allTokens.push(tokenId);\n    }\n\n    function _addTokensToOwnerEnumeration(address to, uint256 tokenId) private {\n      // 1. add address and token ID to the _ownedTokens\n      // 2. ownedTokensIndex tokenId set to the address of the ownedTokens position\n      // 3. We want to execute the function with minting\n      _ownedTokensIndex[tokenId] = _ownedTokens[to].length;\n      _ownedTokens[to].push(tokenId);\n    }\n\n    // two functions - one that returns tokenByIndex and\n    // another one that returns tokenOfOwnerByIndex\n\n    function tokenByIndex(uint256 index) public view returns(uint256) {\n      // make sure that index is not out of bounds of the total supply\n      require(index < totalSupply(), 'Global index is out of bounds!');\n      return _allTokens[index];\n    }\n\n    function tokenOfOwnerByIndex(address owner, uint index) public view returns(uint256) {\n      require(index < balanceOf(owner), 'Owner index is out of bounds!');\n      return _ownedTokens[owner][index];\n    }\n\n    // return the total supply of the _alltokens array\n    function totalSupply() public view returns (uint256) {\n      return _allTokens.length;\n    }\n}",
  "sourcePath": "/Users/zee/Repos/nft-marketplace-starter-kit-main/src/contracts/ERC721Enumerable.sol",
  "compiler": {
    "name": "solc",
    "version": "0.8.13+commit.abaa5c0e.Emscripten.clang"
  },
  "schemaVersion": "3.4.6",
  "updatedAt": "2022-04-02T22:51:47.190Z",
  "devdoc": {
    "kind": "dev",
    "methods": {
      "balanceOf(address)": {
        "details": "NFTs assigned to the zero address are considered invalid, and this  function throws for queries about the zero address.",
        "params": {
          "_owner": "An address for whom to query the balance"
        },
        "returns": {
          "_0": "The number of NFTs owned by `_owner`, possibly zero"
        }
      },
      "ownerOf(uint256)": {
        "details": "NFTs assigned to zero address are considered invalid, and queries  about them do throw.",
        "params": {
          "_tokenId": "The identifier for an NFT"
        },
        "returns": {
          "_0": "The address of the owner of the NFT"
        }
      }
    },
    "version": 1
  },
  "userdoc": {
    "kind": "user",
    "methods": {
      "balanceOf(address)": {
        "notice": "Count all NFTs assigned to an owner"
      },
      "ownerOf(uint256)": {
        "notice": "Find the owner of an NFT"
      }
    },
    "version": 1
  }
}