{
  "contractName": "KryptoBird",
  "abi": [
    {
      "inputs": [],
      "stateMutability": "nonpayable",
      "type": "constructor"
    },
    {
      "anonymous": false,
      "inputs": [
        {
          "indexed": true,
          "internalType": "address",
          "name": "from",
          "type": "address"
        },
        {
          "indexed": true,
          "internalType": "address",
          "name": "to",
          "type": "address"
        },
        {
          "indexed": true,
          "internalType": "uint256",
          "name": "tokenId",
          "type": "uint256"
        }
      ],
      "name": "Transfer",
      "type": "event"
    },
    {
      "inputs": [
        {
          "internalType": "address",
          "name": "_owner",
          "type": "address"
        }
      ],
      "name": "balanceOf",
      "outputs": [
        {
          "internalType": "uint256",
          "name": "",
          "type": "uint256"
        }
      ],
      "stateMutability": "view",
      "type": "function",
      "constant": true
    },
    {
      "inputs": [
        {
          "internalType": "uint256",
          "name": "",
          "type": "uint256"
        }
      ],
      "name": "kryptoBirdz",
      "outputs": [
        {
          "internalType": "string",
          "name": "",
          "type": "string"
        }
      ],
      "stateMutability": "view",
      "type": "function",
      "constant": true
    },
    {
      "inputs": [],
      "name": "name",
      "outputs": [
        {
          "internalType": "string",
          "name": "",
          "type": "string"
        }
      ],
      "stateMutability": "view",
      "type": "function",
      "constant": true
    },
    {
      "inputs": [
        {
          "internalType": "uint256",
          "name": "_tokenId",
          "type": "uint256"
        }
      ],
      "name": "ownerOf",
      "outputs": [
        {
          "internalType": "address",
          "name": "",
          "type": "address"
        }
      ],
      "stateMutability": "view",
      "type": "function",
      "constant": true
    },
    {
      "inputs": [],
      "name": "symbol",
      "outputs": [
        {
          "internalType": "string",
          "name": "",
          "type": "string"
        }
      ],
      "stateMutability": "view",
      "type": "function",
      "constant": true
    },
    {
      "inputs": [
        {
          "internalType": "uint256",
          "name": "index",
          "type": "uint256"
        }
      ],
      "name": "tokenByIndex",
      "outputs": [
        {
          "internalType": "uint256",
          "name": "",
          "type": "uint256"
        }
      ],
      "stateMutability": "view",
      "type": "function",
      "constant": true
    },
    {
      "inputs": [
        {
          "internalType": "address",
          "name": "owner",
          "type": "address"
        },
        {
          "internalType": "uint256",
          "name": "index",
          "type": "uint256"
        }
      ],
      "name": "tokenOfOwnerByIndex",
      "outputs": [
        {
          "internalType": "uint256",
          "name": "",
          "type": "uint256"
        }
      ],
      "stateMutability": "view",
      "type": "function",
      "constant": true
    },
    {
      "inputs": [],
      "name": "totalSupply",
      "outputs": [
        {
          "internalType": "uint256",
          "name": "",
          "type": "uint256"
        }
      ],
      "stateMutability": "view",
      "type": "function",
      "constant": true
    },
    {
      "inputs": [
        {
          "internalType": "string",
          "name": "_kryptoBird",
          "type": "string"
        }
      ],
      "name": "mint",
      "outputs": [],
      "stateMutability": "nonpayable",
      "type": "function"
    }
  ],
  "bytecode": "0x60806040523480156200001157600080fd5b506040518060400160405280600a81526020017f4b727970746f42697264000000000000000000000000000000000000000000008152506040518060400160405280600681526020017f4b424952445a00000000000000000000000000000000000000000000000000008152508181816000908051906020019062000098929190620000bc565b508060019080519060200190620000b1929190620000bc565b5050505050620001d0565b828054620000ca906200019b565b90600052602060002090601f016020900481019282620000ee57600085556200013a565b82601f106200010957805160ff19168380011785556200013a565b828001600101855582156200013a579182015b82811115620001395782518255916020019190600101906200011c565b5b5090506200014991906200014d565b5090565b5b80821115620001685760008160009055506001016200014e565b5090565b7f4e487b7100000000000000000000000000000000000000000000000000000000600052602260045260246000fd5b60006002820490506001821680620001b457607f821691505b602082108103620001ca57620001c96200016c565b5b50919050565b61140580620001e06000396000f3fe608060405234801561001057600080fd5b50600436106100935760003560e01c80636352211e116100665780636352211e1461013457806370a082311461016457806393ab6e561461019457806395d89b41146101c4578063d85d3d27146101e257610093565b806306fdde031461009857806318160ddd146100b65780632f745c59146100d45780634f6ccce714610104575b600080fd5b6100a06101fe565b6040516100ad9190610c04565b60405180910390f35b6100be610290565b6040516100cb9190610c3f565b60405180910390f35b6100ee60048036038101906100e99190610cf8565b61029d565b6040516100fb9190610c3f565b60405180910390f35b61011e60048036038101906101199190610d38565b61034d565b60405161012b9190610c3f565b60405180910390f35b61014e60048036038101906101499190610d38565b6103be565b60405161015b9190610d74565b60405180910390f35b61017e60048036038101906101799190610d8f565b61046f565b60405161018b9190610c3f565b60405180910390f35b6101ae60048036038101906101a99190610d38565b610526565b6040516101bb9190610c04565b60405180910390f35b6101cc6105d2565b6040516101d99190610c04565b60405180910390f35b6101fc60048036038101906101f79190610ef1565b610664565b005b60606000805461020d90610f69565b80601f016020809104026020016040519081016040528092919081815260200182805461023990610f69565b80156102865780601f1061025b57610100808354040283529160200191610286565b820191906000526020600020905b81548152906001019060200180831161026957829003601f168201915b5050505050905090565b6000600480549050905090565b60006102a88361046f565b82106102e9576040517f08c379a00000000000000000000000000000000000000000000000000000000081526004016102e090610fe6565b60405180910390fd5b600660008473ffffffffffffffffffffffffffffffffffffffff1673ffffffffffffffffffffffffffffffffffffffff168152602001908152602001600020828154811061033a57610339611006565b5b9060005260206000200154905092915050565b6000610357610290565b8210610398576040517f08c379a000000000000000000000000000000000000000000000000000000000815260040161038f90611081565b60405180910390fd5b600482815481106103ac576103ab611006565b5b90600052602060002001549050919050565b6000806002600084815260200190815260200160002060009054906101000a900473ffffffffffffffffffffffffffffffffffffffff169050600073ffffffffffffffffffffffffffffffffffffffff168173ffffffffffffffffffffffffffffffffffffffff1603610466576040517f08c379a000000000000000000000000000000000000000000000000000000000815260040161045d90611113565b60405180910390fd5b80915050919050565b60008073ffffffffffffffffffffffffffffffffffffffff168273ffffffffffffffffffffffffffffffffffffffff16036104df576040517f08c379a00000000000000000000000000000000000000000000000000000000081526004016104d690611113565b60405180910390fd5b600360008373ffffffffffffffffffffffffffffffffffffffff1673ffffffffffffffffffffffffffffffffffffffff168152602001908152602001600020549050919050565b6008818154811061053657600080fd5b90600052602060002001600091509050805461055190610f69565b80601f016020809104026020016040519081016040528092919081815260200182805461057d90610f69565b80156105ca5780601f1061059f576101008083540402835291602001916105ca565b820191906000526020600020905b8154815290600101906020018083116105ad57829003601f168201915b505050505081565b6060600180546105e190610f69565b80601f016020809104026020016040519081016040528092919081815260200182805461060d90610f69565b801561065a5780601f1061062f5761010080835404028352916020019161065a565b820191906000526020600020905b81548152906001019060200180831161063d57829003601f168201915b5050505050905090565b600981604051610674919061116f565b908152602001604051809103902060009054906101000a900460ff16156106d0576040517f08c379a00000000000000000000000000000000000000000000000000000000081526004016106c7906111f8565b60405180910390fd5b60088190806001815401808255809150506001900390600052602060002001600090919091909150908051906020019061070b929190610ac8565b50600060016008805490506107209190611247565b905061072c3382610767565b600160098360405161073e919061116f565b908152602001604051809103902060006101000a81548160ff0219169083151502179055505050565b6107718282610788565b61077a81610949565b6107848282610992565b5050565b600073ffffffffffffffffffffffffffffffffffffffff168273ffffffffffffffffffffffffffffffffffffffff16036107f7576040517f08c379a00000000000000000000000000000000000000000000000000000000081526004016107ee906112ed565b60405180910390fd5b61080081610a56565b15610840576040517f08c379a000000000000000000000000000000000000000000000000000000000815260040161083790611359565b60405180910390fd5b816002600083815260200190815260200160002060006101000a81548173ffffffffffffffffffffffffffffffffffffffff021916908373ffffffffffffffffffffffffffffffffffffffff1602179055506001600360008473ffffffffffffffffffffffffffffffffffffffff1673ffffffffffffffffffffffffffffffffffffffff16815260200190815260200160002060008282546108e29190611379565b92505081905550808273ffffffffffffffffffffffffffffffffffffffff16600073ffffffffffffffffffffffffffffffffffffffff167fddf252ad1be2c89b69c2b068fc378daa952ba7f163c4a11628f55a4df523b3ef60405160405180910390a45050565b6004805490506005600083815260200190815260200160002081905550600481908060018154018082558091505060019003906000526020600020016000909190919091505550565b600660008373ffffffffffffffffffffffffffffffffffffffff1673ffffffffffffffffffffffffffffffffffffffff168152602001908152602001600020805490506007600083815260200190815260200160002081905550600660008373ffffffffffffffffffffffffffffffffffffffff1673ffffffffffffffffffffffffffffffffffffffff1681526020019081526020016000208190806001815401808255809150506001900390600052602060002001600090919091909150555050565b6000806002600084815260200190815260200160002060009054906101000a900473ffffffffffffffffffffffffffffffffffffffff169050600073ffffffffffffffffffffffffffffffffffffffff168173ffffffffffffffffffffffffffffffffffffffff161415915050919050565b828054610ad490610f69565b90600052602060002090601f016020900481019282610af65760008555610b3d565b82601f10610b0f57805160ff1916838001178555610b3d565b82800160010185558215610b3d579182015b82811115610b3c578251825591602001919060010190610b21565b5b509050610b4a9190610b4e565b5090565b5b80821115610b67576000816000905550600101610b4f565b5090565b600081519050919050565b600082825260208201905092915050565b60005b83811015610ba5578082015181840152602081019050610b8a565b83811115610bb4576000848401525b50505050565b6000601f19601f8301169050919050565b6000610bd682610b6b565b610be08185610b76565b9350610bf0818560208601610b87565b610bf981610bba565b840191505092915050565b60006020820190508181036000830152610c1e8184610bcb565b905092915050565b6000819050919050565b610c3981610c26565b82525050565b6000602082019050610c546000830184610c30565b92915050565b6000604051905090565b600080fd5b600080fd5b600073ffffffffffffffffffffffffffffffffffffffff82169050919050565b6000610c9982610c6e565b9050919050565b610ca981610c8e565b8114610cb457600080fd5b50565b600081359050610cc681610ca0565b92915050565b610cd581610c26565b8114610ce057600080fd5b50565b600081359050610cf281610ccc565b92915050565b60008060408385031215610d0f57610d0e610c64565b5b6000610d1d85828601610cb7565b9250506020610d2e85828601610ce3565b9150509250929050565b600060208284031215610d4e57610d4d610c64565b5b6000610d5c84828501610ce3565b91505092915050565b610d6e81610c8e565b82525050565b6000602082019050610d896000830184610d65565b92915050565b600060208284031215610da557610da4610c64565b5b6000610db384828501610cb7565b91505092915050565b600080fd5b600080fd5b7f4e487b7100000000000000000000000000000000000000000000000000000000600052604160045260246000fd5b610dfe82610bba565b810181811067ffffffffffffffff82111715610e1d57610e1c610dc6565b5b80604052505050565b6000610e30610c5a565b9050610e3c8282610df5565b919050565b600067ffffffffffffffff821115610e5c57610e5b610dc6565b5b610e6582610bba565b9050602081019050919050565b82818337600083830152505050565b6000610e94610e8f84610e41565b610e26565b905082815260208101848484011115610eb057610eaf610dc1565b5b610ebb848285610e72565b509392505050565b600082601f830112610ed857610ed7610dbc565b5b8135610ee8848260208601610e81565b91505092915050565b600060208284031215610f0757610f06610c64565b5b600082013567ffffffffffffffff811115610f2557610f24610c69565b5b610f3184828501610ec3565b91505092915050565b7f4e487b7100000000000000000000000000000000000000000000000000000000600052602260045260246000fd5b60006002820490506001821680610f8157607f821691505b602082108103610f9457610f93610f3a565b5b50919050565b7f4f776e657220696e646578206973206f7574206f6620626f756e647321000000600082015250565b6000610fd0601d83610b76565b9150610fdb82610f9a565b602082019050919050565b60006020820190508181036000830152610fff81610fc3565b9050919050565b7f4e487b7100000000000000000000000000000000000000000000000000000000600052603260045260246000fd5b7f476c6f62616c20696e646578206973206f7574206f6620626f756e6473210000600082015250565b600061106b601e83610b76565b915061107682611035565b602082019050919050565b6000602082019050818103600083015261109a8161105e565b9050919050565b7f4f776e657220717565727920666f72206e6f6e2d6578697374656e7420746f6b60008201527f656e000000000000000000000000000000000000000000000000000000000000602082015250565b60006110fd602283610b76565b9150611108826110a1565b604082019050919050565b6000602082019050818103600083015261112c816110f0565b9050919050565b600081905092915050565b600061114982610b6b565b6111538185611133565b9350611163818560208601610b87565b80840191505092915050565b600061117b828461113e565b915081905092915050565b7f4572726f72202d206b727970746f4269726420616c726561647920657869737460008201527f7300000000000000000000000000000000000000000000000000000000000000602082015250565b60006111e2602183610b76565b91506111ed82611186565b604082019050919050565b60006020820190508181036000830152611211816111d5565b9050919050565b7f4e487b7100000000000000000000000000000000000000000000000000000000600052601160045260246000fd5b600061125282610c26565b915061125d83610c26565b9250828210156112705761126f611218565b5b828203905092915050565b7f4552433732313a204d696e74696e6720746f20746865207a65726f206164647260008201527f6573730000000000000000000000000000000000000000000000000000000000602082015250565b60006112d7602383610b76565b91506112e28261127b565b604082019050919050565b60006020820190508181036000830152611306816112ca565b9050919050565b7f4552433732313a20546f6b656e20616c7265616479206d696e74656400000000600082015250565b6000611343601c83610b76565b915061134e8261130d565b602082019050919050565b6000602082019050818103600083015261137281611336565b9050919050565b600061138482610c26565b915061138f83610c26565b9250827fffffffffffffffffffffffffffffffffffffffffffffffffffffffffffffffff038211156113c4576113c3611218565b5b82820190509291505056fea26469706673582212209d2be475bf4b3e60694d2b0a99d2e019bf56b4cbec01f2864c69cae74ea1957164736f6c634300080d0033",
  "immutableReferences": {},
  "source": "// SPDX-License-Identifier: MIT\npragma solidity ^0.8.0;\n\nimport './ERC721Connector.sol';\n\ncontract KryptoBird is ERC721Connector {\n  // array to store our NFTs\n  string[] public kryptoBirdz;\n\n  mapping(string => bool) _kryptoBirdzExists;\n\n\n  function mint(string memory _kryptoBird) public {\n    require(!_kryptoBirdzExists[_kryptoBird], 'Error - kryptoBird already exists');\n\n    // Deprecated\n    // .push no longer returns the length but a ref to the added element\n    // uint _id = KryptoBirdz.push(_kryptoBird);\n\n    kryptoBirdz.push(_kryptoBird);\n    uint _id = kryptoBirdz.length - 1; \n    _mint(msg.sender, _id);\n\n    _kryptoBirdzExists[_kryptoBird] = true;\n  }\n\n  constructor() ERC721Connector('KryptoBird', 'KBIRDZ') {\n    \n  }\n}",
  "sourcePath": "/Users/zee/Repos/nft-marketplace-starter-kit-main/src/contracts/KryptoBirdz.sol",
  "compiler": {
    "name": "solc",
    "version": "0.8.13+commit.abaa5c0e.Emscripten.clang"
  },
  "schemaVersion": "3.4.6",
  "updatedAt": "2022-04-02T21:44:14.106Z",
  "networkType": "ethereum",
  "devdoc": {
    "kind": "dev",
    "methods": {
      "balanceOf(address)": {
        "details": "NFTs assigned to the zero address are considered invalid, and this  function throws for queries about the zero address.",
        "params": {
          "_owner": "An address for whom to query the balance"
        },
        "returns": {
          "_0": "The number of NFTs owned by `_owner`, possibly zero"
        }
      },
      "ownerOf(uint256)": {
        "details": "NFTs assigned to zero address are considered invalid, and queries  about them do throw.",
        "params": {
          "_tokenId": "The identifier for an NFT"
        },
        "returns": {
          "_0": "The address of the owner of the NFT"
        }
      }
    },
    "version": 1
  },
  "userdoc": {
    "kind": "user",
    "methods": {
      "balanceOf(address)": {
        "notice": "Count all NFTs assigned to an owner"
      },
      "ownerOf(uint256)": {
        "notice": "Find the owner of an NFT"
      }
    },
    "version": 1
  }
}